:100000000C9463000C948B000C948B000C948B006C
:100010000C948B000C948B000C948B000C948B0034
:100020000C948B000C948B000C948B000C948B0024
:100030000C948B000C948B000C948B000C948B0014
:100040000C94EE0A0C948B000C945E0B0C94380B01
:100050000C948B000C948B000C948B000C948B00F4
:100060000C94CF090C948B000000000024002700A2
:100070002A0000000000250028002B0000000000DE
:1000800023002600290004040404040404040202DA
:100090000202020203030303030301020408102007
:1000A0004080010204081020010204081020000012
:1000B0000008000201000003040700000000000027
:1000C0000000900BC41111241FBECFEFD8E0DEBF9B
:1000D000CDBF25E0A2E3B4E001C01D92A53EB2076A
:1000E000E1F714E0A0E0B1E0E4E0FCE202C005903A
:1000F0000D92A233B107D9F710E0C2E6D0E004C0F8
:100100002197FE010E945213C136D107C9F70E9400
:10011000170C0C94F5150C94000020919304260FF5
:100120003327331F21323105ECF42091DE04FC012A
:1001300090E080E0243069F082E00895A09193047B
:100140002191AC014F585B4FA40FB52FB11D2C93DB
:100150000196861798F380919304680F6093930437
:1001600080E0089581E00895089508950895E0914C
:100170006F0480916E04E81730F4F0E0E25BFB4F0F
:10018000808190E008958FEF9FEF089590916F0424
:1001900080916E042FEF3FEF981748F4E92FF0E0BD
:1001A000E25BFB4F208130E09F5F90936F04C901B9
:1001B000089580916E0490916F04891B990B0895A6
:1001C000CF92DF92EF92FF920F931F93CF93DF9323
:1001D0007C01CB018A012091E404222389F0EB0108
:1001E0006B01C40ED51ECC15DD0569F06991D701F0
:1001F000ED91FC910190F081E02DC7010995F3CFBD
:10020000642F0E948D00C801DF91CF911F910F9143
:10021000FF90EF90DF90CF900895CF93DF931F92E0
:10022000CDB7DEB769832091E4042223F9F0209151
:100230000705203258F021E030E0FC0133832283AF
:1002400090E080E00F90DF91CF9108958091E504D8
:10025000E82FF0E0EA51FB4F998190838F5F809304
:10026000E5048093070581E090E0ECCF61E0CE01EA
:1002700001960E948D00F7CFFC01538D448D252FF0
:1002800030E0842F90E0821B930B541710F0CF9630
:10029000089501970895FC01918D828D981761F062
:1002A000A28DAE0FBF2FB11D5D968C91928D9F5F79
:1002B0009F73928F90E008958FEF9FEF0895FC0158
:1002C000918D828D981731F0828DE80FF11D858D0B
:1002D00090E008958FEF9FEF0895FC01918D228D9E
:1002E000892F90E0805C9F4F821B91098F73992723
:1002F0000895FC01A48DA80FB92FB11DA35ABF4FBB
:100300002C91848D90E001968F739927848FA68914
:10031000B7892C93A089B1898C91837080648C9368
:10032000938D848D981306C00288F389E02D808117
:100330008F7D80830895EF92FF920F931F93CF9349
:10034000DF93EC0181E0888F9B8D8C8D98131AC010
:10035000E889F989808185FF15C09FB7F894EE89F7
:10036000FF896083E889F989808183708064808354
:100370009FBF81E090E0DF91CF911F910F91FF909F
:10038000EF900895F62E0B8D10E00F5F1F4F0F7347
:100390001127E02E8C8D8E110CC00FB607FCFACF02
:1003A000E889F989808185FFF5CFCE010E94790126
:1003B000F1CFEB8DEC0FFD2FF11DE35AFF4FF082D3
:1003C0009FB7F8940B8FEA89FB8980818062CFCF39
:1003D000CF93DF93EC01888D8823B9F0AA89BB897C
:1003E000E889F9898C9185FD03C0808186FD0DC067
:1003F0000FB607FCF7CF8C9185FFF2CF808185FF88
:10040000EDCFCE010E947901E9CFDF91CF91089520
:1004100084E195E00E946D0121E0892B09F420E040
:10042000822F089580E090E0892B29F00E94080235
:1004300081110C9400000895833081F028F48130FC
:1004400099F08230A9F008958730A9F08830C9F07A
:100450008430B1F4809180008F7D03C08091800052
:100460008F7780938000089584B58F7784BD089539
:1004700084B58F7DFBCF8091B0008F778093B000E3
:1004800008958091B0008F7DF9CFCF93DF93282F0F
:1004900030E0F901E255FF4F8491F901E656FF4F34
:1004A000D491F901EA57FF4FC491CC23A1F08111F7
:1004B0000E941C02EC2FF0E0EE0FFF1FE458FF4FEC
:1004C000A591B491EC91ED2381E090E009F480E0F6
:1004D000DF91CF91089580E090E0FACF1F93CF9302
:1004E000DF93282F30E0F901E255FF4F8491F901A5
:1004F000E656FF4FD491F901EA57FF4FC491CC2340
:10050000A9F0162F81110E941C02EC2FF0E0EE0FD3
:10051000FF1FEE58FF4FA591B4918FB7F894EC915F
:10052000111108C0D095DE23DC938FBFDF91CF91EE
:100530001F910895DE2BF8CF1092DE0481E08093A6
:10054000DD041092B80461E082E10E946E0261E075
:1005500083E10E946E02E9EBF0E080818E7F808370
:1005600080818D7F808388E48093B80085E48093C8
:10057000BC000895CF93DF9391E09093700488239B
:10058000B9F0C091B800D091BA008091BC008A7BCC
:100590008093BC0060E082E10E946E0260E083E133
:1005A0000E946E020E949C02D093BA00C093B800D1
:1005B000DF91CF910895CF93DF9390E0FC01E65651
:1005C000FF4F24918A579F4FFC0184918823D1F0DB
:1005D00090E0880F991FFC01E859FF4FA591B49155
:1005E000FC01EE58FF4FC591D49161110EC09FB729
:1005F000F8948C91E22FE0958E238C932881E2234E
:10060000E8839FBFDF91CF9108958FB7F894EC9165
:10061000E22BEC938FBFF6CFCF93DF93D82FC62F6B
:10062000E82FF0E0E354FA4F60832091C60581E0A3
:1006300090E0A0E0B0E00D2E04C0880F991FAA1F23
:10064000BB1F0A94D2F73091C705311115C0822B18
:100650008093C60561E08C2F0E94DB026091C60585
:1006600070E002C075956795DA95E2F761708C2F9E
:10067000DF91CF910C946E0280958223E9CF8E306A
:1006800008F08E508770806480937C0080917A009F
:10069000806480937A0080917A0086FDFCCF8091FF
:1006A00078009091790008953FB7F89480914A04BA
:1006B00090914B04A0914C04B0914D0426B5A89B99
:1006C00005C02F3F19F00196A11DB11D3FBFBA2FE4
:1006D000A92F982F8827BC01CD01620F711D811DA4
:1006E000911D42E0660F771F881F991F4A95D1F729
:1006F0000895CF92DF92EF92FF920F931F93CF93C3
:10070000DF93D091070581E0D13208F09CC0C09101
:1007100006050E9454036B017C018091DE04811167
:100720006CC082E08093DE0481E08093DD048FEF73
:100730008093DC041092DB04D093DA04A6EEB4E0DC
:10074000EAEBF4E080E0D8138DC01092B9048091F8
:10075000B904CC0FC82BC093B9048091B804813080
:1007600009F084C01092B8040E9454036B017C010C
:100770008091B9048093BB008091E0049091E104E2
:10078000A091E204B091E304892B8A2B8B2BA1F07A
:100790000E9454030091E0041091E1042091E204CE
:1007A0003091E3046C197D098E099F09061717071C
:1007B0002807390708F442C08091BC0083FDD8CFD8
:1007C00085EC8093BC000E9454036B017C018091F6
:1007D000DE04823009F44CC08091DC048F3F09F4C0
:1007E00069C08091DC04803209F466C08091DC0429
:1007F000803309F463C084E026C08091E0049091C6
:10080000E104A091E204B091E304892B8A2B8B2BA5
:1008100009F483CF0E9454030091E0041091E10495
:100820002091E2043091E3046C197D098E099F093F
:10083000061717072807390708F06FCF8091DF04E4
:100840000E94BA0285E01092E5041092070510920A
:10085000E404DF91CF911F910F91FF90EF90DF9013
:10086000CF9008959D9191938F5F6DCF85EEA9CF25
:100870008091E0049091E104A091E204B091E3043E
:10088000892B8A2B8B2B09F4A2CF0E945403009151
:10089000E0041091E1042091E2043091E3046C192A
:1008A0007D098E099F09061717072807390708F0E1
:1008B0008ECFC4CF80E0C7CF82E0C5CF83E0C3CF67
:1008C0008F929F92AF92BF92CF92DF92EF92FF9260
:1008D0004B015C010E9454036B017C010E94540394
:1008E0006C197D098E099F09683E73408105910549
:1008F000A8F321E0821A9108A108B10888EEC80E79
:1009000083E0D81EE11CF11C81149104A104B10400
:1009100029F7FF90EF90DF90CF90BF90AF909F901E
:100920008F900895AF92BF92CF92DF92EF92FF9295
:100930000F931F93CF93DF936C017B018B01040F07
:10094000151FEB015E01AE18BF08C017D10759F0A3
:100950006991D601ED91FC910190F081E02DC601E5
:100960000995892B79F7C501DF91CF911F910F91DF
:10097000FF90EF90DF90CF90BF90AF900895FC0173
:1009800023812223F1F0262F618160956223608309
:10099000828191E09093E404809306051092E5042F
:1009A0001092070588E095E00E940D010E947903EE
:1009B000282F30E081E090E0232B11F090E080E0E0
:1009C000089530E020E0F6CFEF92FF920F931F934F
:1009D000CF938C01FC0184E0C0E0262F30E060FF63
:1009E00002C09589C92BB9017595679581503196DB
:1009F0008111F3CF413011F4F8014489F801658584
:100A0000C62BC42B7801FEE0EF0EF11CF8016289C1
:100A10006C2BC7010E94BF04F801628960956C23AA
:100A2000C701CF911F910F91FF90EF900C94BF04DD
:100A30000F931F93CF93DF93062F0F70423041F433
:100A400040E0602FDF91CF911F910F910C94E4044F
:100A5000142FEC0170E084E0759567958A95E1F7B5
:100A6000CE010E94E404412F602FCE01EBCFFC01A8
:100A700084858823A1F0218532852115310521F453
:100A8000611107C0158606C021303105D9F7611103
:100A9000F9CF85876585CF010E960C94BF04089524
:100AA00021E001C0220F6A95EAF7DC011C962C9325
:100AB0001C971A965C934E931997ED91FC910484C0
:100AC000F585E02D60E00994DC01ED91FC91068450
:100AD000F785E02D41E0099581E090E00895DC0183
:100AE000ED91FC910684F785E02D40E009940F9389
:100AF0001F93CF93DF93CDB7DEB728970FB6F89447
:100B0000DEBF0FBECDBF00913001109131012091A9
:100B10003201309133010D831E832F83388700917A
:100B2000340110913501209136013091370109834C
:100B30001A832B833C839091CF05691710F06FEFD8
:100B4000690F262F30E04091D0052C0F3D1FF90191
:100B5000403199F4943089F46181680F606888ECC1
:100B600095E028960FB6F894DEBF0FBECDBFDF919B
:100B7000CF911F910F910C946F056581EECFEF928D
:100B8000FF920F931F93CF93DF938B0198E0899F80
:100B9000B0011124606488EC95E00E946F0583E742
:100BA00090E00197F1F7E801085F1F4F8BE9E82E0D
:100BB000F12C699188EC95E00E946405C7010197CA
:100BC000F1F7C017D107A9F7DF91CF911F910F91CE
:100BD000FF90EF90089561E00E946F058BE39FE125
:100BE0000197F1F708950F931F93CF93DF93EC01D3
:100BF000423018F08C8188608C834F836887222371
:100C000029F0413019F48C8184608C8364E670E0B3
:100C100080E090E00E9460046C8164FD57C0E88130
:100C2000F9810684F785E02D42E063E0CE01099565
:100C30008BE496E40197F1F7E881F9810684F78562
:100C4000E02D42E063E0CE01099503E512E0C80122
:100C50000197F1F7E881F9810684F785E02D42E0FC
:100C600063E0CE010995C8010197F1F7E881F981A8
:100C70000684F785E02D42E062E0CE010995C801C7
:100C80000197F1F76C816062CE010E946F058BEED7
:100C900090E00197F1F784E08D836CE0CE010E9433
:100CA0006F05CE010E94EB0582E08E8366E0CE01E7
:100CB0000E946F05E881F9810484F585E02D6FEFCE
:100CC000CE01DF91CF911F910F9109946062CE0107
:100CD0000E946F058BE496E40197F1F76C816062E6
:100CE000CE010E946F0503E512E0C8010197F1F7FC
:100CF0006C816062CE010E946F05C1CFEF92FF92BE
:100D00000F931F93CF93DF93EC01062FF42EE22E67
:100D10008B85888B10926F0410926E041092E504FC
:100D2000109207050E949C0284EB90E0909392043D
:100D30008093910485EB90E09093960480939504C2
:100D4000888911E01093E404809306050E947903DA
:100D500081111CC0198B88E095E00E94C6008E8727
:100D60008989882339F01F861C8260E0CE010E96A7
:100D70000E94BF042E2D4F2D602FCE01DF91CF9109
:100D80001F910F91FF90EF900C94F305198AE8CF13
:100D900008950895089590E080E0089561E081E16C
:100DA0000E946E0262E370E080E090E00E946004C6
:100DB00060E081E10C946E02FB0101900020E9F7F4
:100DC0003197AF01461B570BDC01ED91FC9102807E
:100DD000F381E02D09948F929F92AF92BF92EF9290
:100DE000FF920F931F93CF93DF93CDB7DEB7A197F9
:100DF0000FB6F894DEBF0FBECDBF7C01FA01CB0168
:100E000019A2223008F42AE08E010F5D1F4F822EB6
:100E1000912CB12CA12CBF01A50194010E9430138B
:100E2000F901CA016A300CF5605DD8016E938D013D
:100E3000232B242B252B79F790E080E0109721F0CD
:100E4000BD01C7010E94DC06A1960FB6F894DEBF73
:100E50000FBECDBFDF91CF911F910F91FF90EF900B
:100E6000BF90AF909F908F900895695CDECFCF9236
:100E7000DF92EF92FF920F931F93CF93DF9377FF51
:100E800021C06A017B01EC01E881F9810190F081C8
:100E9000E02D6DE209958C0144275527BA014C19C4
:100EA0005D096E097F092AE0CE010E94EB06800FE2
:100EB000911FDF91CF911F910F91FF90EF90DF90E5
:100EC000CF9008952AE0DF91CF911F910F91FF906D
:100ED000EF90DF90CF900C94EB06CF93DF93AC01B3
:100EE000990F660B770B84E195E00E943707EC01C0
:100EF00064E073E084E195E00E94DC068C0F9D1FA6
:100F0000DF91CF91089588E00E944502892BC1F0BE
:100F10000E94CE0688E00E944502892BD9F764E63C
:100F200070E080E090E00E94600480912801909140
:100F30002901019690932901809328010E946D0751
:100F40008CE00E944502892BC1F00E94CE068CE005
:100F50000E944502892BD9F764E670E080E090E0BA
:100F60000E9460048091280190912901019790933B
:100F70002901809328010E946D0781E090E0909301
:100F80002901809328010895CF93DF93BC0184E168
:100F900095E00E94DC06EC0164E073E084E195E0FA
:100FA0000E94DC068C0F9D1FDF91CF9108954F9218
:100FB0005F926F927F928F929F92AF92BF92CF92E9
:100FC000DF92EF92FF926B017C01AC019B010E94CA
:100FD000F91367E073E0811126C046015701E894D8
:100FE000B7F82FEF3FEF4FE75FE7C501B4010E946D
:100FF000F91381110CC02FEF3FEF4FE75FE7C501F9
:10100000B4010E94D5116BE073E0181664F02FEF65
:101010003FEF4FE75FE4C701B6010E94F4131816D3
:1010200094F46FE073E088EC95E0FF90EF90DF9030
:10103000CF90BF90AF909F908F907F906F905F9078
:101040004F900C94DC062FEF3FEF4FE75FECC701AA
:10105000B6010E94D51187FDE4CF20E030E0A90160
:10106000C701B6010E94D511B12CA12C87FF0AC07F
:101070006DE288EC95E00E9464055C01F7FAF0945B
:10108000F7F8F0942AE037ED43EA5BE3C701B601D5
:101090000E9459132B013C010E94C5136B017C0176
:1010A0000E94DA119B01AC01C301B2010E945813E6
:1010B0002B013C012AE0B701A60188EC95E00E94D3
:1010C000EB067C01EA0CFB1C6EE288EC95E00E94CA
:1010D0006405E80EF91E20E030E040E251E4C3016F
:1010E000B2010E943B122B013C010E94C5134B012F
:1010F000B12CA12C2AE0B501A40188EC95E00E9456
:10110000EB06E80EF91EC501B4010E94DA119B013D
:10111000AC01C301B2010E94581320E030E040E26C
:1011200051E40E943B120E94C513AB0170E060E0E5
:101130002AE088EC95E00E94EB068E0D9F1DFF9043
:10114000EF90DF90CF90BF90AF909F908F907F9067
:101150006F905F904F9008950C94DC0660E080E003
:101160000E94770563E173E088EC95E00E94AC088B
:1011700060E089E00E9477056CE173E088EC95E01F
:101180000E94AC0861E080E00E94770564E273E0B1
:1011900088EC95E00E94AC0861E089E00E94770548
:1011A0006CE273E088EC95E00C94AC0887E00E9458
:1011B0004502019791F51092440488EC95E00E9455
:1011C000EB050E94AE0860E08AE00E946E0260E0DB
:1011D0008BE00E946E0260E086E00E946E0260E09A
:1011E00085E00E946E0260E082E00E946E0260E094
:1011F00084E00E946E0260E083E00E946E0260E084
:1012000089E00E946E020E94CE0660E081E10E94A9
:101210006E021092350410923404089585ED809387
:10122000BC008091E0049091E104A091E204B091AF
:10123000E3040796A11DB11D23E0B695A7959795E8
:1012400087952A95D1F72091BC0024FD03C0109208
:10125000DE0408954091E0045091E1046091E204BD
:101260007091E304452B462B472B69F30097A105AA
:10127000B10541F025E32A95F1F700000197A10996
:10128000B109E1CF8091DF040C94BA020E94E0150D
:101290000F931F93CF93DF93EC018881998100977F
:1012A00059F02A813B812617370730F081E0DF9122
:1012B000CF911F910F9108958B016F5F7F4F0E9417
:1012C0002315009759F0998388831B830A832C8107
:1012D0003D81232B59F7FC011082E8CF80E0E7CF56
:1012E000CF93DF93EC01198218821B821A821D8230
:1012F0001C8270E060E00E944809288139818111D8
:101300000FC02115310519F0C9010E949A141982E4
:1013100018821D821C821B821A82DF91CF91089550
:101320001D821C8266E073E0C901DF91CF910C94AD
:10133000EE15EF92FF920F931F93CF93DF93EC0183
:101340007B01FB0101900020E9F731978F01061B1B
:10135000170BB8010E94480928813981811113C0F7
:101360002115310519F0C9010E949A1419821882B9
:101370001D821C821B821A82DF91CF911F910F91D7
:10138000FF90EF9008951D830C83B701C901DF9191
:10139000CF911F910F91FF90EF900C94EE151F923B
:1013A0000F920FB60F9211242F933F934F935F9399
:1013B0006F937F938F939F93AF93BF93EF93FF931D
:1013C0008091B900887F803609F44AC0F0F58832F0
:1013D00009F4A7C018F5803109F49BC0B8F488233C
:1013E00009F4F9C0883009F494C0FF91EF91BF91DE
:1013F000AF919F918F917F916F915F914F913F91AD
:101400002F910F900FBE0F901F901895883109F4FF
:1014100088C0803251F78093DC0414C0803409F412
:101420009DC040F48033B9F38833F9F68093DC042F
:1014300085ECB0C0803509F485C0883509F496C0C4
:10144000883499F60E940E09D0CF883909F48CC0EF
:1014500038F5883729F050F4883611F0803729F6AE
:1014600083E08093DE041092B70457C0883809F4F3
:101470007BC0803919F0803809F0B7CF8091B7046C
:10148000803208F071C0E091B70481E08E0F809344
:10149000B7048091BB00F0E0E956FB4F80833DC06C
:1014A000803B39F0E0F4803A09F479C0883A09F0D9
:1014B0009CCF84E08093DE041092940410929304F5
:1014C000E0919104F0919204099580919304811127
:1014D0000FC081E0809393041092710409C0803C96
:1014E00009F4A6CF883C09F4A3CF883B09F07DCF4F
:1014F000E091940481E08E0F80939404F0E0EF5823
:10150000FB4F80818093BB00909194048091930461
:1015100029C08091B9048093BB0085EC8093BC0006
:1015200064CF9091DB048091DA04981758F5E0912C
:10153000DB0481E08E0F8093DB04F0E0E654FB4F88
:101540008081E9CFE091DB0481E08E0F8093DB04A2
:101550008091BB00F0E0E654FB4F80839091DB0468
:101560008091DA049817C8F285E8D8CFE091DB04BF
:1015700081E08E0F8093DB048091BB00F0E0E654A5
:10158000FB4F80838091DD0481115CCF81E08093EB
:10159000B80484EA8093BC001092DE0426CF85EC68
:1015A0008093BC001092DE048091B704803230F446
:1015B000E091B704F0E0E956FB4F10826091B70468
:1015C00070E0E0919504F091960487E994E0099524
:1015D0001092B7040ACF1092DC0434CF1F920F92FE
:1015E0000FB60F9211242F933F938F939F93AF9336
:1015F000BF938091460490914704A0914804B09114
:1016000049043091450423E0230F2D3758F5019606
:10161000A11DB11D20934504809346049093470477
:10162000A0934804B093490480914A0490914B04DC
:10163000A0914C04B0914D040196A11DB11D809361
:101640004A0490934B04A0934C04B0934D04BF9173
:10165000AF919F918F913F912F910F900FBE0F905F
:101660001F90189526E8230F0296A11DB11DD2CF19
:101670001F920F920FB60F9211242F933F934F9307
:101680005F936F937F938F939F93AF93BF93EF93EA
:10169000FF9384E195E00E947901FF91EF91BF9162
:1016A000AF919F918F917F916F915F914F913F91FA
:1016B0002F910F900FBE0F901F9018951F920F92B1
:1016C0000FB60F9211242F938F939F93EF93FF9355
:1016D000E0912405F09125058081E0912A05F091A3
:1016E0002B0582FD1BC0908180912D058F5F8F732C
:1016F00020912E05821741F0E0912D05F0E0EC5E7F
:10170000FA4F958F80932D05FF91EF919F918F91C7
:101710002F910F900FBE0F901F9018958081F4CFDE
:10172000E8E0F5E01382128288EE93E0A0E0B0E0FA
:1017300084839583A683B78320ED32E031832083B1
:10174000E4E1F5E01382128284839583A683B78354
:1017500082EE92E09183808385EC90E09587848788
:1017600084EC90E09787868780EC90E0918B808B6B
:1017700081EC90E0938B828B82EC90E0958B848B54
:1017800086EC90E0978B868B118E128E138E148EC2
:10179000E8ECF5E01382128284EF92E0918380837B
:1017A000108A8FEF87871686118A87E283871486CF
:1017B00015861286118684E0828B82E0838B81E01D
:1017C000848B90E1958B90E2968B90E4978B90E8D8
:1017D000908FEDEBF5E098E090871186828769E0C5
:1017E00080E00E940C036AE081E00E940C036BE041
:1017F00082E00E940C0366E083E00E940C0365E037
:1018000084E00E940C0363E085E00E940C0362E028
:1018100086E00E940C0364E087E00E940C0387EBE3
:1018200095E00E94700981EB95E00C947009789422
:1018300084B5826084BD84B5816084BD85B58260D5
:1018400085BD85B5816085BD80916E008160809386
:101850006E001092810080918100826080938100EF
:1018600080918100816080938100809180008160FF
:10187000809380008091B10084608093B10080915A
:10188000B00081608093B00080917A008460809382
:101890007A0080917A00826080937A0080917A0049
:1018A000816080937A0080917A00806880937A00CA
:1018B0001092C10050E040E063E088EC95E00E94A7
:1018C000500561E088EC95E00E94370520E042E099
:1018D00060E188EC95E00E947E0660E271E080E0C5
:1018E0000E94BF0568E171E081E00E94BF0560E1F0
:1018F00071E082E00E94BF0568E071E083E00E9431
:10190000BF0560E071E084E00E94BF0588EC95E0CF
:101910000E94EB0560E088E00E94DB0260E08CE062
:101920000E94DB0260E08DE00E94DB0260E087E065
:101930000E94DB0260E08EE00E94DB0260E08FE04C
:101940000E94DB0260E080E10E94DB0261E089E04E
:101950000E94DB0261E08AE00E94DB0261E08BE032
:101960000E94DB0261E086E00E94DB0261E085E02C
:101970000E94DB0261E083E00E94DB0261E082E022
:101980000E94DB0261E084E00E94DB0261E081E111
:101990000E94DB0260E080E00E94770562E373E072
:1019A00088EC95E00E94AC0861E080E00E94770539
:1019B00061E473E088EC95E00E94AC0860ED77E0AC
:1019C00080E090E00E94600488EC95E00E94EB05C6
:1019D00060E080E00E94770560E573E088EC95E0C8
:1019E0000E94AC0860ED77E080E090E00E94600427
:1019F00088EC95E00E94EB0581E090E0909329014E
:101A000080932801812C912C5401839420E0E22EB4
:101A100020E0F22ED1E00E9483078091280190916E
:101A20002901019709F0ACC188EC95E00E94EB0513
:101A30000E94AE0864E670E080E090E00E946004DE
:101A40008091280190912901019709F099C10E9484
:101A5000830760E080E00E94770560E088EC95E015
:101A60000E9464058091280190912901019741F716
:101A70008DE00E944502019719F7D093440488EC49
:101A800095E00E94EB050E94CE06809144048823D5
:101A9000B9F260E080E00E94770561E673E088ECCF
:101AA00095E00E94AC0860E089E00E94770566E658
:101AB00073E088EC95E00E94AC0861E080E00E9451
:101AC00077056BE673E088EC95E00E94AC0861E076
:101AD00089E00E94770560E773E088EC95E00E945A
:101AE000AC0888E00E944502892B01F188E00E9441
:101AF0004502892BD9F764E670E080E090E00E940F
:101B000060048091420490914304019690934304B1
:101B10008093420465E773E084E195E00E94AC089D
:101B200080914204909143040E946D078CE00E94D2
:101B30004502892B39F18CE00E944502892BD9F7A7
:101B400064E670E080E090E00E94600480914204CE
:101B500090914304019790933304809332041816B4
:101B60001906E4F5909343048093420465E873E01A
:101B700084E195E00E94AC08809132049091330496
:101B80000E946D0780914204909143048230910538
:101B900009F4AFC064F5009709F460C0019709F437
:101BA00092C080914204909143040597A4F060E0B4
:101BB0008AE00E946E0260E08BE00E946E0260E0AC
:101BC00086E00E946E0260E085E00E946E02109244
:101BD0004304109242040E94D60857CF1092430447
:101BE000109242041092330410923204BFCF83301B
:101BF000910509F49DC00497A1F661E08AE00E9476
:101C00006E0261E08BE00E946E0261E086E00E945D
:101C10006E0261E085E00E946E0260E086E00E9454
:101C2000770564E088EC95E00E94640560E08FE051
:101C30000E94770564E088EC95E00E94640561E00D
:101C400086E00E94770564E088EC95E00E946405D8
:101C500061E08FE00E94770564E030C060E08AE0D8
:101C60000E946E0260E08BE00E946E0260E086E0FF
:101C70000E946E0260E085E00E946E0260E086E0F5
:101C80000E94770563E088EC95E00E94640560E0BF
:101C90008FE00E94770563E088EC95E00E94640580
:101CA00061E086E00E94770563E088EC95E00E94A1
:101CB000640561E08FE00E94770563E088EC95E0C1
:101CC0000E9464056ECF61E08AE00E946E0260E0CF
:101CD0008BE00E946E0260E086E00E946E0260E08F
:101CE00085E00E946E0260E086E00E94770564E075
:101CF000CACF61E08AE00E946E0261E08BE00E9440
:101D00006E0260E086E00E946E0260E085E00E9464
:101D10006E0260E086E00E94770564E088EC95E062
:101D20000E94640560E08FE00E94770564E0B4CF14
:101D300061E08AE00E946E0261E08BE00E946E0228
:101D400061E086E00E946E0260E085E00E946E0223
:101D500060E086E00E94770564E088EC95E00E94F0
:101D6000640560E08FE00E94770564E088EC95E010
:101D70000E94640561E086E00E94770564E095CFEB
:101D80008091280190912901029709F08AC088EC7E
:101D900095E00E94EB050E94AE0880912801909189
:101DA0002901029709F07DC00E94830760E089E065
:101DB0000E94770560E088EC95E00E9464058091C0
:101DC000280190912901029741F78DE00E94450278
:101DD000019719F7D093440488EC95E00E94EB0535
:101DE0000E94CE06809144048823B9F28EE00E94BE
:101DF0003F03BC01990F880B990B0E94DC112AE06C
:101E000038E240EA5BE30E943B1260933E04709329
:101E10003F0480934004909341048FE00E943F036D
:101E2000BC01990F880B990B0E94DC1160933A0456
:101E300070933B0480933C0490933D0460E080E009
:101E40000E94770562E973E088EC95E00E94AC0897
:101E500060E08AE00E94770560913E0470913F0443
:101E600080914004909141040E94D70761E080E096
:101E70000E9477056DE973E088EC95E00E94AC085C
:101E800061E08AE00E94770560913A0470913B041A
:101E900080913C0490913D040E94D7070E94D6088F
:101EA000A1CF8091280190912901039709F066C183
:101EB00088EC95E00E94EB050E94AE088091280115
:101EC00090912901039709F059C10E94830761E0AD
:101ED00080E00E94770560E088EC95E00E94640550
:101EE0008091280190912901039741F78DE00E948C
:101EF0004502019719F7D093440488EC95E00E94BD
:101F0000EB051092390410923804109237041092A5
:101F1000360460E080E00E94770568EA73E088ECB0
:101F200095E00E94AC0860E088E00E94770561EBD4
:101F300073E088EC95E00E94AC0861E080E00E94CC
:101F4000770565EB73E088EC95E00E94AC0861E0F2
:101F500088E00E94770561EB73E088EC95E00E94D1
:101F6000AC0860E08CE00E94770562E088EC95E0C8
:101F70000E94640561E08CE00E94770562E088ECD5
:101F800095E00E9464050E94CE0680914404882357
:101F900009F494CF88E00E944502892B79F188E00A
:101FA0000E944502892BD9F7809138049091390419
:101FB000019690933904809338048130910509F09B
:101FC000A9C061E082E00E946E028EEB93E00E9465
:101FD000C4076EEC73E087EB95E00E94990960E01E
:101FE0008CE00E94770561E088EC95E00E94640532
:101FF00080913804909139040E946D078CE00E9412
:102000004502892B79F18CE00E944502892BD9F792
:102010008091360490913704019690933704809311
:1020200036048130910509F08FC061E083E00E94A1
:102030006E0286EE93E00E94C4076EEC73E081EBC3
:1020400095E00E94990961E08CE00E94770561E0CB
:1020500088EC95E00E9464058091360490913704E5
:102060000E946D078091380490913904029724F002
:1020700010923904109238048091360490913704FC
:10208000029724F0109237041092360487E00E94E1
:102090004502892B41F060E082E00E946E0260E020
:1020A00084E00E946E0260E080E00E94770568EAAA
:1020B00073E088EC95E00E94AC0860E088E00E9444
:1020C00077054091BB055091BC056091B7057091B3
:1020D000B80588EC95E00E94920461E080E00E94DF
:1020E000770565EB73E088EC95E00E94AC0861E051
:1020F00088E00E9477054091B5055091B605609142
:10210000B1057091B20588EC95E00E9492040E949E
:10211000D6083BCF8230910519F0892B09F068CFA2
:1021200060E082E00E946E0283ED93E00E94C407AB
:1021300061EB73E087EB95E00E94990960E08CE029
:102140000E94770562E050CF8230910519F0892B0B
:1021500009F082CF60E083E00E946E0286EF93E098
:102160000E94C40761EB73E081EB95E00E9499093E
:1021700061E08CE00E94770562E06ACF80912801DF
:1021800090912901049709F0F3C088EC95E00E9432
:10219000EB050E94AE0880912801909129010497D7
:1021A00009F0E6C00E94830761E089E00E9477059C
:1021B00060E088EC95E00E94640580912801909190
:1021C0002901049741F78DE00E944502019719F714
:1021D000D093440488EC95E00E94EB050E94CE0663
:1021E000809144048823B9F288E00E944502019757
:1021F00091F488E00E9445020197D9F3809134045C
:10220000909135040196853691050CF09BC0909312
:102210003504809334048CE00E944502892B91F0B0
:102220008CE00E9445020197D9F38091340490918B
:1022300035040197181619060CF089C090933504DF
:102240008093340461E088E00E947705E0913404D3
:10225000F0913504EE0FFF1FEE0FFF1FE85CFE4FFD
:10226000408151816281738188EC95E00E9437073B
:1022700069E074E084E195E00E94AC088091340448
:10228000909135040E946D0760E080E00E94770520
:102290006CE174E088EC95E00E94AC0860E08AE0B4
:1022A0000E9477054091340450913504052E000CAE
:1022B000660B770B88EC95E00E94370761E080E0C1
:1022C0000E94770567E274E088EC95E00E94AC0814
:1022D0000091340410913504C0E011278091C505A8
:1022E000C81708F042C08C2F90E0B091C705B50127
:1022F000A4010C2E04C0440F551F661F771F0A94BB
:10230000D2F7A091C605FC01E354FA4F98010C2EB8
:1023100002C0359527950A94E2F720FF21C0BB2320
:1023200009F14A2B4093C6056091C60570E002C0D2
:10233000759567958A95E2F7617080810E946E02BB
:10234000CF5FCCCF109235041092340464CF10923A
:1023500035041092340488EC95E00E94EB0572CFAE
:10236000BB23F9F240954A23DDCF0E94D60838CF2F
:10237000E114F10409F44FCB0E940802882309F408
:102380004ACB0E94000047CB8091B1059091B205E5
:10239000009711F00E949A148091B7059091B805AA
:1023A000009711F00C949A1408950E94171208F4E3
:1023B00081E00895E89409C097FB3EF490958095DC
:1023C000709561957F4F8F4F9F4F9923A9F0F92FFB
:1023D00096E9BB279395F695879577956795B79579
:1023E000F111F8CFFAF4BB0F11F460FF1BC06F5F5F
:1023F0007F4F8F4F9F4F16C0882311F096E911C071
:10240000772321F09EE8872F762F05C0662371F091
:1024100096E8862F70E060E02AF09A95660F771FA5
:10242000881FDAF7880F9695879597F90895990F81
:102430000008550FAA0BE0E8FEEF16161706E8078E
:10244000F907C0F012161306E407F50798F0621BAF
:10245000730B840B950B39F40A2661F0232B242B84
:10246000252B21F408950A2609F4A140A6958FEFA3
:10247000811D811D08950E944E120C94BF120E946E
:10248000B11238F00E94B81220F0952311F00C948C
:10249000A8120C94AE1211240C94F3120E94D012C4
:1024A00070F3959FC1F3950F50E0551F629FF001A7
:1024B000729FBB27F00DB11D639FAA27F00DB11DC0
:1024C000AA1F649F6627B00DA11D661F829F222749
:1024D000B00DA11D621F739FB00DA11D621F839FD0
:1024E000A00D611D221F749F3327A00D611D231FA6
:1024F000849F600D211D822F762F6A2F11249F57F4
:1025000050409AF0F1F088234AF0EE0FFF1FBB1FF6
:10251000661F771F881F91505040A9F79E3F5105B5
:1025200080F00C94A8120C94F3125F3FE4F3983EF1
:10253000D4F3869577956795B795F795E7959F5F5F
:10254000C1F7FE2B880F911D9695879597F90895F1
:1025500097F99F6780E870E060E008959FEF80EC56
:10256000089500240A9416161706180609060895F9
:1025700000240A9412161306140605060895092E5F
:102580000394000C11F4882352F0BB0F40F4BF2BCE
:1025900011F460FF04C06F5F7F4F8F4F9F4F08950E
:1025A00057FD9058440F551F59F05F3F71F0479504
:1025B000880F97FB991F61F09F3F79F087950895E9
:1025C000121613061406551FF2CF4695F1DF08C008
:1025D000161617061806991FF1CF86957105610525
:1025E00008940895E894BB2766277727CB0197F9CD
:1025F00008952F923F924F925F926F927F928F92A7
:102600009F92AF92BF92CF92DF92EF92FF920F9381
:102610001F93CF93DF93CDB7DEB7CA1BDB0B0FB68B
:10262000F894DEBF0FBECDBF09942A883988488848
:102630005F846E847D848C849B84AA84B984C884DE
:10264000DF80EE80FD800C811B81AA81B981CE0FD5
:10265000D11D0FB6F894DEBF0FBECDBFED010895BA
:10266000A1E21A2EAA1BBB1BFD010DC0AA1FBB1F96
:10267000EE1FFF1FA217B307E407F50720F0A21B08
:10268000B30BE40BF50B661F771F881F991F1A9475
:1026900069F760957095809590959B01AC01BD019F
:1026A000CF010895EE0FFF1F0590F491E02D0994DE
:1026B0005058BB27AA270E9470130C94BF120E9487
:1026C000B11238F00E94B81220F039F49F3F19F48B
:1026D00026F40C94AE120EF4E095E7FB0C94A812CD
:1026E000E92F0E94D01258F3BA17620773078407C4
:1026F000950720F079F4A6F50C94F2120EF4E0950B
:102700000B2EBA2FA02D0B01B90190010C01CA01AB
:10271000A0011124FF27591B99F0593F50F4503E56
:1027200068F11A16F040A22F232F342F4427585F48
:10273000F3CF469537952795A795F0405395C9F760
:102740007EF41F16BA0B620B730B840BBAF0915018
:10275000A1F0FF0FBB1F661F771F881FC2F70EC0B7
:10276000BA0F621F731F841F48F48795779567958A
:10277000B795F7959E3F08F0B0CF9395880F08F076
:102780009927EE0F9795879508950E94D81288F0A3
:102790009F5798F0B92F9927B751B0F0E1F0660F25
:1027A000771F881F991F1AF0BA95C9F714C0B13066
:1027B00091F00E94F212B1E008950C94F212672F8A
:1027C000782F8827B85F39F0B93FCCF38695779595
:1027D0006795B395D9F73EF490958095709561957E
:1027E0007F4F8F4F9F4F08950E94171208F48FEF6D
:1027F00008950E941712880B990B08950F931F9349
:10280000CF93DF938230910510F482E090E0E09165
:10281000E305F091E40530E020E0B0E0A0E030977F
:1028200099F42115310509F44AC0281B390B2430CD
:102830003105D8F58A819B816115710589F1FB010C
:1028400093838283FE0111C04081518102811381F3
:1028500048175907E0F04817590799F4109761F0A5
:1028600012960C93129713961C933296CF01DF9118
:10287000CF911F910F9108950093E3051093E40504
:10288000F4CF2115310551F04217530738F0A90153
:10289000DB019A01BD01DF01F801C1CFEF01F9CFE2
:1028A0009093E4058093E305CDCFFE01E20FF31F83
:1028B000819391932250310939832883D7CF209176
:1028C000E1053091E205232B41F420912C01309158
:1028D0002D013093E2052093E10520912A013091EA
:1028E0002B012115310541F42DB73EB740912E0142
:1028F00050912F01241B350BE091E105F091E20589
:10290000E217F307A0F42E1B3F0B2817390778F0C6
:10291000AC014E5F5F4F2417350748F04E0F5F1F25
:102920005093E2054093E105819391939FCFF0E0AE
:10293000E0E09CCFCF93DF930097E9F0FC01329762
:1029400013821282A091E305B091E405ED0130E01D
:1029500020E01097A1F420813181820F931F2091F4
:10296000E1053091E2052817390709F061C0F093BD
:10297000E205E093E105DF91CF910895EA01CE17DA
:10298000DF07E8F54A815B819E0141155105B1F7EA
:10299000E901FB83EA8349915991C40FD51FEC17D4
:1029A000FD0761F4808191810296840F951FE901F2
:1029B00099838883828193819B838A83F0E0E0E01E
:1029C00012968D919C9113970097B9F52D913C919A
:1029D0001197CD010296820F931F2091E10530914E
:1029E000E2052817390739F6309751F51092E405BA
:1029F0001092E305B093E205A093E105BCCFD38329
:102A0000C28340815181840F951FC817D90761F493
:102A10004E5F5F4F88819981480F591F51834083D2
:102A20008A819B81938382832115310509F0B0CF80
:102A3000F093E405E093E3059ECFFD01DC01C0CFF8
:102A400013821282D7CFB0E0A0E0E9E2F5E10C9466
:102A5000FB128C01009751F4CB010E94FE138C01F4
:102A6000C801CDB7DEB7E0E10C941713FC01E60F07
:102A7000F71F9C0122503109E217F30708F49DC0AB
:102A8000D901CD91DC911197C617D70798F0C530C1
:102A9000D10530F3CE0104978617970708F3C61BBC
:102AA000D70B2297C193D1936D937C93CF010E9452
:102AB0009A14D6CF5B01AC1ABD0A4C018C0E9D1E38
:102AC000A091E305B091E405512C412CF12CE12CAF
:102AD000109731F58091E1059091E20588159905EF
:102AE00009F05CC04616570608F058C080912A01CC
:102AF00090912B01009741F48DB79EB740912E0124
:102B000050912F01841B950BE817F90708F055C069
:102B1000F093E205E093E105F90171836083A0CFB2
:102B20008D919C91119712966C90129713967C90B0
:102B30001397A815B90559F56C0142E0C40ED11CD4
:102B4000CA14DB0420F1AC014A195B09DA011296C0
:102B5000159780F06282738251834083D9016D930F
:102B60007C93E114F10471F0D7011396FC93EE937A
:102B7000129776CF22968C0F9D1FF9019183808347
:102B8000F301EFCFF093E405E093E30569CF481636
:102B9000590608F42C017D01D3019ACFCB010E9484
:102BA000FE137C01009749F0AE01B8010E94E515C3
:102BB000C8010E949A14870153CF10E000E050CF63
:102BC00081E090E0F8940C94F515FB01DC0102C063
:102BD00001900D9241505040D8F70895FB01DC015F
:102BE00001900D920020E1F7089510E0C2E6D0E0D8
:102BF00004C0FE010E9452132196C336D107C9F7C3
:042C0000F894FFCF76
:102C04000E08081F1F1B1B1F0E0A0A1F1F1B1B1F5A
:102C140000000A0004000E11000A0A0004110E004C
:102C24000004061F1F06040001000000E5058000E3
:102C34000040145400401050000000000100000047
:102C44000A0000000B0000006400000065000000A2
:102C54006E0000006F000000E8030000E9030000BC
:102C6400F2030000F30300004C0400004D040000D4
:102C7400560400005704000010270000112700002C
:102C84001A2700001B270000742700007527000086
:102C94007E2700007F270000F82A0000F92A0000A0
:102CA400022B0000032B00005C2B00005D2B0000B6
:102CB400662B0000672B0000A0860100A18601009E
:102CC400AA860100AB860100048701000587010084
:102CD4000E8701000F870100888A0100898A01009C
:102CE400928A0100938A0100EC8A0100ED8A0100B6
:102CF400F68A0100F78A0100B0AD0100B1AD010010
:102D0400BAAD0100BBAD010014AE010015AE010067
:102D14001EAE01001FAE010098B1010099B101007F
:102D2400A2B10100A3B10100FCB10100FDB1010099
:102D340006B2010007B2010040420F0041420F00F9
:102D44004A420F004B420F00A4420F00A5420F005D
:102D5400AE420F00AF420F0028460F0029460F0075
:102D640032460F0033460F008C460F008D460F008D
:102D740096460F0097460F0050690F0051690F00E7
:102D84005A690F005B690F00B4690F00B5690F0041
:102D9400BE690F00BF690F00386D0F00396D0F0059
:102DA400426D0F00436D0F009C6D0F009D6D0F0071
:102DB400A66D0F00A76D0F00E0C81000E1C8100059
:102DC400EAC81000EBC8100044C91000000000005D
:102DD4000D01E000CB06B600D900C600B700000024
:102DE40000009B0192043C01E8016D014B015F016D
:102DF4000000000064059204CB06CA067E06500556
:102E0400370518050D0A006E616E00696E66006F65
:102E1400766600204449474954414C0020414E41C4
:102E24004C4F47002052454C4159530020434F4ECC
:102E3400540020204249454E56454E49444F5320A4
:102E440000202020505255454241204C434420004C
:102E5400454C494A4120554E41204F5043494F4E1D
:102E6400004C454431004C454432004C4544330049
:102E74004C4544340020456E63656E646572204C95
:102E84004544202000417061676172204C45442014
:102E94002000414E414C4F4720313D2000414E41DE
:102EA4004C4F4720323D200052454C4520313A20BA
:102EB400004F46460052454C4520323A20005265A8
:102EC4006C65203120416374697661646F004F4EF4
:102ED40020200052656C6520312044657361637461
:102EE400697661646F0052656C65203220416374B9
:102EF400697661646F0052656C65203220446573A5
:102F0400616374697661646F00436F6E7461646FAA
:102F1400722042696E6172696F3A2000434F4E54C9
:102F240041444F523A200042494E4152494F3A20BF
:022F340000009B
:00000001FF
